:020000040800F2
:10000000880C00243903000809560008DB4A000860
:10001000A151000871070008F16E000800000000FF
:100020000000000000000000000000008B5E0008DF
:100030000D080008000000000B5600088D5E000847
:100040005303000853030008530300085303000838
:100050005303000853030008530300085303000828
:100060005303000853030008530300085303000818
:100070005303000853030008530300085303000808
:1000800053030008530300085303000853030008F8
:1000900053030008530300085303000853030008E8
:1000A00053030008530300085303000853030008D8
:1000B0004D60000853030008530300085303000871
:1000C00053030008530300085303000853030008B8
:1000D00053030008530300085303000853030008A8
:1000E00053030008530300080000000053030008F6
:1000F0005303000853030008530300085303000888
:100100005303000853030008530300085303000877
:10011000530300088D6800085303000853030008C8
:100120005303000853030008530300085303000857
:100130005303000853030008530300085303000847
:1001400000000000000000000000000000000000AF
:100150005303000853030008530300085303000827
:100160005303000853030008530300085303000817
:100170005303000853030008530300080000000065
:1001800053030008530300085303000853030008F7
:10019000530300085303000853030008AD58000838
:1001A000530300085303000853030008155B0008BD
:1001B00053030008530300085303000853030008C7
:1001C00053030008530300085303000853030008B7
:1001D00053030008530300085303000853030008A7
:1001E0005303000853030008530300085303000897
:1001F0005303000853030008530300085303000887
:100200005303000853030008355B0008530300083C
:100210005303000853030008530300085303000866
:1002200053030008530300085303000800000000B4
:1002300053030008530300080000000053030008A4
:100240005303000853030008530300085303000836
:100250005303000853030008530300085303000826
:100260005303000853030008530300085303000816
:100270005303000853030008530300080000000064
:100280005303000853030008530300080000000054
:10029000000000005303000800F002F800F03CF8F2
:1002A0000AA090E8000C82448344AAF10107DA45D1
:1002B00001D100F031F8AFF2090EBAE80F0013F0E7
:1002C000010F18BFFB1A43F001031847287B0000F9
:1002D000487B0000103A24BF78C878C1FAD852078A
:1002E00024BF30C830C144BF04680C6070470000B0
:1002F0000023002400250026103A28BF78C1FBD82F
:10030000520728BF30C148BF0B6070471FB506F0C9
:100310004FFF1FBD10B510BD00F0CFF81146FFF71D
:10032000F5FF06F0F7FD00F0EDF803B4FFF7F2FF7C
:1003300003BC00F0F5F80000094880470948004771
:10034000FEE7FEE7FEE7FEE7FEE7FEE7FEE7FEE785
:10035000FEE7FEE704480549054A064B70470000E2
:10036000715F00089902000888060024880C0024A8
:10037000880800248808002453EA020C00F06980F1
:100380002DE9F04B4FF00006002B1FBFB3FA83F5A9
:1003900003FA05F424FA05F65E4012BF1643B2FADA
:1003A00082F502FA05F4C5F120051EBF22FA05FC0C
:1003B00044EA0C04203556EA044C4FEA144418BFB2
:1003C000641C4FF000084FF00009904271EB030CE1
:1003D00039D3002919BFB1FA81F701FA07F6B0FA4B
:1003E00080F700FA07F6C7F120071EBF20FA07FCC6
:1003F00046EA0C062037B6FBF4FCA7EB0507103FD6
:1004000007F01F0BCBF120060CFA0BFB2CFA06F6BB
:1004100044BFB3460026202FA4BF5E464FF0000B1A
:100420005BEA060C08BF4FF0010B19EB0B09ABFBA5
:10043000027C48EB0608C01B06FB02CC0BFB03CC7E
:1004400071EB0C01C1E70B46024641464846BDE848
:10045000F08B13B54FF000004FF00001AFF30080B8
:10046000BDE81C4070474FF0000200B513469446AB
:100470009646203922BFA0E80C50A0E80C50B1F1FC
:100480002001BFF4F7AF090728BFA0E80C5048BF10
:100490000CC05DF804EB890028BF40F8042B08BFAE
:1004A000704748BF20F8022B11F0804F18BF00F8AA
:1004B000012B7047704770477047754600F02CF865
:1004C000AE4605006946534620F00700854618B041
:1004D00020B5FFF73FFFBDE820404FF000064FF08A
:1004E00000074FF000084FF0000B21F00701AC4669
:1004F000ACE8C009ACE8C009ACE8C009ACE8C00988
:100500008D46704710B50446AFF300802046BDE825
:100510001040FFF70ABF000000487047240600247F
:1005200001491820ABBEFEE726000200704700001C
:1005300000B587B040F2FF710DF1080C06230422CC
:100540000090002001938CE80700059069468DF823
:100550001900024800F0F2F907B000BD20010024A4
:1005600000B587B040F2FF710DF1080C062304229C
:100570000090002001938CE80700059069468DF8F3
:100580001900024800F0DAF907B000BD8401002428
:1005900000B587B040F2FF710DF1080C062304226C
:1005A0000090002001938CE80700059069468DF8C3
:1005B0001900024800F0C2F907B000BDE8010024AC
:1005C00070B53A4905460068884202D0384A9042E0
:1005D00002D1D1F8080302E03648D0F8080310F43D
:1005E000403F11D002F02EFC04466868B0F5803F11
:1005F00006D0B0F5003F03D0B0F5403F27D101E071
:10060000000C18E0A40822E000214FF4002001F0C3
:10061000B1FC044668688103890B18D181140C2948
:1006200015D2DFE801F0140606060606060B0D0FCC
:100630001113800C4000B4FBF0F408E0240906E03C
:10064000640904E0A40902E0E40900E0240A01F0DE
:10065000BDF941F20301884208D81748844228684E
:10066000816813D821F48071816070BD13496008DE
:10067000884204D82868816821F44071F4E7104961
:10068000884206D82868816821F4407141F480715D
:10069000EAE70C4988422868816804D821F440714F
:1006A00041F40071E0E741F44071DDE700200240D1
:1006B0000021024000600258002D3101105E5F00F1
:1006C00020BCBE0040787D0170B50446006881689A
:1006D00011F0010F40D18168204A11422DD181686B
:1006E000D5432940491C816001F076F91C49064632
:1006F00020681C4B884201D0984201D11A4A00E080
:100700001A4A9268984202F01F0200D001468142C4
:100710001DD0E2B120E0816811F0010F03D18168A2
:100720002940491C816001F057F9801B02280ED92D
:1007300020680068C043C00709D0606D40F0100019
:100740006065A06D40F00100A065012070BD2068CB
:100750000168C943C907DED1002070BD3F00008099
:1007600000200240002102400023024000630258A2
:10077000FEE700000F4A10B51078802818D20E4905
:100780000E4C01EB8003A2F13C0193ED000A04EB57
:10079000800081ED0B0A1279D0ED000AA4F5C0604B
:1007A00000EB820090ED000A20EE200A81ED0C0A99
:1007B00010BD0000BC000024BC750008BC77000818
:1007C0000F4A10B55078802818D20E490E4C01EB14
:1007D0008003A2F13C0193ED000A04EB800081ED5F
:1007E0000D0A1279D0ED000AA4F5C06000EB82007A
:1007F00090ED000A20EE200A81ED0E0A10BD0000E7
:10080000BC000024BC750008BC770008704772B6B5
:10081000FEE700002DE9F0470F4690F850109AB01F
:10082000044601294FF0000915D00026DFF8F880B2
:10083000012084F8500015961696216841450ED186
:100840003A4D0095284604F051F98246206804F09C
:100850004DF960B10EE002201AB0BDE8F087606D7E
:1008600084F8506040F0200060650120F4E7BAF1A0
:10087000000F09D0616D4FF0010941F02000606563
:10088000484684F85060E7E720684146884201D036
:10089000A84201D1264800E0264840F61F72D7F84A
:1008A00000C0254BBCF1000F23D0D0F808C0D7F80A
:1008B00004802CF4404C4CEA080CC0F808C0D4F872
:1008C00000C08C4501D0AC4507D18968AB6801F008
:1008D000010103F00103194302E0996801F00101ED
:1008E0000029CDD1BD6839688368294393431943F2
:1008F00017E0876827F44047876027688F4201D058
:10090000AF4207D18968AB6801F0010103F0010330
:10091000194302E0996801F001010029B0D1816812
:1009200091438160ACE700000020024000210240BA
:100930000023024000630258006002582DE9F84F7E
:100940004FF0000B0446E54E0D46CDF800B05F4673
:1009500090F85000DFF888A3012808D04FF0010973
:1009600084F85090206804F0BDF818B169E10220C5
:10097000BDE8F88F21682868CA69030328D090FA77
:10098000A0F0B0FA80F000BF00F01F0309FA03F0F6
:100990000243CA61D5E900124FF00C0C20681F23F6
:1009A000C1F384610CEA921C02F01F026044934080
:1009B0009140026B9A430A430263206804F092F864
:1009C0008046206804F08AF858EA000003D07FE0EF
:1009D000C0F38460D8E72068AA68296804F08AF820
:1009E000C0490968B9EB117F06D121686869C968F7
:1009F000C1F38201490008E02068C168C906C168E6
:100A00006869F5D501F01001490888402969042971
:100A10002ED022682B6802EB810103F0F8420B6EA6
:100A2000024303F0004010430866697E226828698B
:100A3000012917D05FF0000102EB8000026E22F066
:100A400000420A430266287E21682A6901280CD0E8
:100A500000200B6902F01F02904023F4F042024391
:100A60000A6135E04FF00041E6E74FF40060F0E73F
:100A700020682978026E02F0F842B2EB816F03D150
:100A8000016E21F00041016620682978426E02F073
:100A9000F842B2EB816F03D1416E21F00041416613
:100AA00020682978826E02F0F842B2EB816F03D1A0
:100AB000816E21F00041816620682978C26E02F0C3
:100AC000F842B2EB816F03D1C16E21F00041C166E3
:100AD0002068816811F0010F76D150F8C02F95F889
:100AE0000CC0814B29680CF0180C23FA0CF3C1F3ED
:100AF00013080B4022EA08021A4302607B48E968A7
:100B0000814277D1286801031BD090FAA0F1B1FA95
:100B100081F1491C01F01F0109294FEA003131D848
:100B2000002911D090FAA0F1B1FA81F101F101018F
:100B300001F01F0109FA01F209D100BFC0F384617D
:100B400009E0C0F38461E4E7C0F38461EEE790FA62
:100B5000A0F1B1FA81F101F1010101F01F0142EAB6
:100B6000816102D1C0F3846003E090FAA0F0B0FA92
:100B700080F000F1010000F01F0000EB400041EAAE
:100B8000005133E000290ED090FAA0F1B1FA81F1C2
:100B900001F1010101F01F0109FA01F206D100BFC4
:100BA000C0F3846106E0C0F38461F1E790FAA0F13C
:100BB000B1FA81F101F1010101F01F0142EA816105
:100BC00003D1C0F3846004E040E090FAA0F0B0FAF2
:100BD00080F0474A00F1010000F01F0000EB4000E8
:100BE00002EB005041EA000141F00071AA68206860
:100BF00003F080FFD5F800C0BCF1000F26DA3D4BB2
:100C000020683D49DFF8F490984201D0B04201D10C
:100C10000A4600E04A469268984202F0E07201D02B
:100C2000B04209D19D68D6F8088005F0010508F0AA
:100C3000010845EA080503E0DAF8085005F0010567
:100C400045B1606D012740F020006065384684F8AA
:100C500050B08DE62A4DAC451CD115021AD4504532
:100C6000F4D1984202D0B04200D049468B6842F499
:100C7000000023F0E07202438A602349214809689A
:100C8000B1FBF0F04000801C00E0401E0090002806
:100C9000FBD1DBE71D4DAC450CD1D5010AD4504545
:100CA000D4D1984202D0B04200D049468B6842F07D
:100CB00080700EE0164DAC45C8D15502C6D45045E3
:100CC000C4D1984202D0B04200D049468B6842F469
:100CD000800023F0E07202438A60B7E700210240FF
:100CE000006002580010005CFFFF0F000000FF478B
:100CF000000020FE00200240002302400063025852
:100D0000000084CB400D0300F4000024000052C713
:100D10000000B8CF0068006C70470000F8B54FF0D5
:100D2000000604003546009602D0606D10B107E061
:100D30000120F8BD204600F005F9A66584F8506052
:100D400020688168C1F3407119B18168704A11400F
:100D5000816020688168C1F3007181B981686D4A42
:100D6000114041F0805181606C496B480968B1FBCA
:100D7000F0F0401C00E0401E00900028FBD12068ED
:100D80008168C1F3007141B9616D012541F0100125
:100D90006165A16D41F00101A16503F0A3FE616DE4
:100DA000C90600D420B1606D012540F0100093E029
:100DB000606D20F4807040F00200606520688168FA
:100DC00011F0010F1FD1564A564B904201D0984264
:100DD00007D191689E6801F0010106F001063143D8
:100DE00003E05149896801F0010161B9904201D0E5
:100DF000984201D14D4800E04D488268616822F474
:100E00007C120A43826000F0E1FD41F20301884256
:100E100002D9A06810280CD0617D227FA368206BC6
:100E2000490341EA024118430843217F01290CD0BC
:100E300010E0607D227F216B400340EA024241F0D6
:100E40001000104340F00C00EFE7218C394A02EB10
:100E500041410843616A29B1A26A01F478710143F2
:100E600042EA01002168344BCA681A400243CA6052
:100E7000206803F037FE0646206803F02FFE30435B
:100E80001DD1216844F20303267DE26AC86842EA64
:100E9000863298431043C86094F8380001281ED069
:100EA0002068016921F0010101612068626B01691C
:100EB00021F07041114301612046FFF781FBE0689A
:100EC000012820681CD0016B21F00F010163606DC7
:100ED00020F0020040F0010060652846F8BD20685F
:100EE000A28F164FD4E9101C154E07EB0247A36CD6
:100EF000026941EA0C013B43324019431143D3E7F5
:100F0000A269016B521E21F00F011143DEE70000C0
:100F1000C0FFFF5FC0FFFF7F400D0300F40000240F
:100F200000200240002102400060025800230240DD
:100F3000006302580000FEFF03C0F0FF0100FFFF46
:100F40001EF800FCF0B587B0054614216846FFF78F
:100F50008AFA454B00244348DFF810C12F68083057
:100F6000196803253F4A6745414E01F1010129D126
:100F70000129196007D1116841F020011160116841
:100F800001F020010591016841F001010160016853
:100F900001F001010591016841F004010160006860
:100FA0006946029400F0040005904020CDE9000558
:100FB000304600F0EFFB10206946CDE900052D48D2
:100FC00002942CE0DFF8B0C067452CD101291960EC
:100FD00007D1116841F020011160116801F0200172
:100FE0000591016841F001010160016801F0010112
:100FF0000591016841F002010160006869460294B0
:1010000000F0020005908020CDE90005304600F098
:10101000C1FB02206946CDE900051848029400F0A2
:10102000B9FB07B0F0BD16498F42FAD1016841F013
:1010300080710160016801F080710591016841F0E3
:1010400004010160006800F0040005904FF080602A
:10105000014602F09BFE4FF00060014602F096FE52
:10106000DFE70000D8440258D800002400200240E6
:1010700000000258000802580021024000040258F3
:10108000006002582DE9F0413B4D044600683B4F9B
:10109000A84201D0B84201D1394900E039498968F4
:1010A00001F01F0603F01EFD18B102210846BDE83D
:1010B000F08194F8500001280CD0012084F85000F1
:1010C0002046FFF701FB01004FF0000204D084F836
:1010D0005020EBE70220EAE7636D40F6016C2068E0
:1010E00023EA0C03B84243F48073636501D12B46B5
:1010F00000E00346834200D01EB9636D23F48013E1
:101100006365636DDB0404D5A36D23F00603A3655B
:1011100000E0A2651C23036084F850202068B842D8
:1011200001D12A4600E00246824215D0A6B1052E22
:1011300012D0092E10D0626DB84242F4801262655E
:1011400000D00546E8688001B0D5606D20F40050FD
:1011500040F480506065A9E7C268920105D5626DD0
:1011600022F4005242F4805262658268064B1A40B3
:10117000121D82609AE70000002002400021024018
:101180000023024000630258C0FFFF7F2DE9F84FA3
:10119000044600F021FC00903CB194F83500022890
:1011A00006D0802161650020E4E00120BDE8F88FD1
:1011B000C74DC74EC649183520683036DFF814834E
:1011C000DFF814938842DFF814A3DFF814B32ED0AD
:1011D000A8422CD0B0422AD0404528D0484526D03D
:1011E000504524D0584522D0BD4A183290421ED0D6
:1011F000BC4A90421BD0BB4A1832904217D0B94A21
:101200003032904213D0B74A483290420FD0B54A9C
:10121000603290420BD0B34A7832904207D0B14A44
:101220009032904203D0AF4AA832904209D102686E
:1012300022F01E0202602068426922F080024261B0
:1012400003E0026822F00E02026027688F423846EF
:101250004DD0A8424BD0B04249D0404547D0484538
:1012600045D0504543D0584541D09D4A1832904210
:101270003DD09C4A90423AD09A4A1832904236D099
:10128000984A3032904232D0964A483290422ED01C
:10129000944A603290422AD0924A7832904226D0C4
:1012A000904A9032904222D08E4AA83290421ED06C
:1012B0008D4A90421BD08C4A1432904217D08A4AF1
:1012C0002832904213D0884A3C3290420FD0864A4E
:1012D000503290420BD0844A6432904207D0824A06
:1012E0007832904203D0804A8C32974204D1206EEB
:1012F000026822F48072026075492068884228D012
:10130000A84226D0B04224D0404522D0484520D023
:1013100050451ED058451CD071491831884218D00C
:101320007049884215D06F491831884211D06D49F3
:10133000303188420DD06B494831884209D0694923
:101340006031884205D067497831884201D06549CB
:101350009031016821F0010101600EE000F03CFBDA
:101360000099401A052808D920226265032100202F
:1013700084F8351084F8340017E73868C007EDD1D9
:10138000534A0121206890422ED0A8422CD0B0426E
:101390002AD0404528D0484526D0504524D058452D
:1013A00022D04F4B183398421ED04E4B98421BD040
:1013B0004C4B1833984217D04A4B3033984213D0D5
:1013C000484B483398420FD0464B603398420BD07D
:1013D000444B7833984207D0424B9033984203D025
:1013E000404BA833984208D194F85C703F23A06D1D
:1013F00007F01F07BB40836007E094F85C30A06DE6
:1014000003F01F0301FA03F34360206890424DD0BC
:10141000A8424BD0B04249D0404547D0484545D07E
:10142000504543D0584541D02D4A183290423DD0C6
:101430002C4A90423AD02B4A1832904236D0294A50
:101440003032904232D0274A483290422ED0254A3C
:10145000603290422AD0234A7832904226D0214AE4
:101460009032904222D01F4AA83290421ED01E4A8B
:1014700090421BD01C4A1432904217D01A4A28328C
:10148000904213D0184A3C3290420FD0164A503244
:1014900090420BD0144A6432904207D0124A7832FC
:1014A000904203D0104A8C3290420BD1D4E91902F9
:1014B0004260E06E30B1026822F480720260D4E9CA
:1014C0001C024260002084F8351084F834006DE678
:1014D00010000240580002407000024088000240A4
:1014E000A000024010040240085402582DE9F05FA9
:1014F00028B190F83510022904D0802141650120DF
:10150000BDE8F09F904C904B0168183C18338E4A10
:10151000DFF83C92A1428D4CDFF838E28E4FDFF8C5
:101520003CB2DFF83CA28F4D8F4E31D091422FD08C
:1015300099422DD0A1422BD0494529D0714527D0C1
:10154000B94225D0DFF810C20CF1180C61451FD04C
:10155000DFF808C2ACF1600C614519D0DFF8FCC1BE
:10156000ACF1480C614513D0DFF8F0C1ACF1300CA0
:1015700061450DD0DFF8E4C1ACF1180C614507D02E
:10158000594505D0514503D0A94201D0B1422CD1D3
:10159000DFF8B4C14FF0040880F83580ACF1180CC6
:1015A00061451DD091421BD0994219D0A14217D05C
:1015B000494515D0714513D0B94211D0664818304D
:1015C00081420DD065486038814209D0634848386F
:1015D000814205D061483038814201D05F481838D7
:1015E000086820F001000860ABE0D1F800C02CF0E2
:1015F0000E08DFF854C1C1F80080ACF1180C016886
:10160000614527D0914225D0994223D0A14221D0D3
:1016100049451FD071451DD0B9421BD0DFF838C1F4
:101620000CF1180C614515D0DFF830C1ACF1600C3D
:1016300061450FD0DFF824C1ACF1480C614509D0F9
:10164000DFF818C1ACF1300C614503D0DFF80CC1F4
:10165000ACF1180CD1F800C02CF0010CC1F800C09E
:10166000DFF8E4804FF0010C0168A8F1180841454B
:1016700046D0914244D0994242D0A14240D04945FF
:101680003ED071453CD0B9423AD0334A18329142EB
:1016900036D0324A603A914232D0304A483A91428A
:1016A0002ED02E4A303A91422AD02C4A183A9142F2
:1016B00026D0594524D0514522D0A94220D0B1424C
:1016C0001ED02A4A91421BD0284A1432914217D088
:1016D000264A2832914213D0244A3C3291420FD0FC
:1016E000224A503291420BD0204A6432914207D0B4
:1016F0001E4A7832914203D01C4A8C32914218D152
:10170000016E0A6822F480720A6090F85C20816D94
:1017100002F01F020CFA02F24A60D0E919124A6084
:10172000C16E31B10A6822F480720A60D0E91C12DD
:101730004A600022016D80F835C080F8342001B184
:1017400088470020DCE600002800024058000240E4
:101750007000024088000240A00002407004024075
:1017600088040240A0040240B80402400854025811
:1017700070B5044600F030F90546601C02D00448FC
:101780000078044400F028F9401BA042FAD370BD51
:10179000E80000242DE9F84F03247D4D00234FF08D
:1017A00001094FF0B04B4FF00F0AE9E009FA03F7D7
:1017B0003A4076D00E7906F00306012E01D0022EB3
:1017C00018D1D0F808C04FEA430ECE6804FA0EF8DC
:1017D0002CEA080C06FA0EF646EA0C068660D0F8EB
:1017E00004C00E792CEA070CC6F300169E4046EAA8
:1017F0000C0646600E79F643B6070BD0C6684FEA72
:1018000043088F6804FA08FC26EA0C0607FA08F772
:101810003743C7600E7906F00306022E12D1DE08A8
:101820000F694FEA437C00EB8606B646366A4FEAFC
:10183000DC6C0AFA0CF807FA0CF726EA08063743BC
:10184000CEF820700F7906684FEA430807F00307C7
:1018500004FA08FC07FA08F726EA0C063743076083
:101860004E6816F4403F1CD04A4E376847F00207D6
:10187000376036689F0706F00206009623F00306DD
:1018800006F1B046B6463F0FD6F80864DFF8088187
:101890000AFA07FC404526EA0C0603D14FF0000C7B
:1018A00041E06CE0DFF8F4C0604502D14FF0010C7C
:1018B00039E0DFF8ECC0604502D14FF0020C32E0B5
:1018C000DFF8E0C0604502D14FF0030C2BE0DFF8F9
:1018D000D8C0604502D14FF0040C24E0DFF8CCC042
:1018E000604502D14FF0050C1DE0DFF8C4C0604533
:1018F00002D14FF0060C16E0DFF8B8C0604502D107
:101900004FF0070C0FE0DFF8B0C0604502D14FF098
:10191000080C08E0DFF8A4C0604502D14FF0090CC4
:1019200001E04FF00A0C0CFA07FC4CEA060CCEF86A
:1019300008C44F68DBF80060FF0226EA020600D503
:1019400016435F46CBF80060D1F804C0DBF80460B2
:101950005FEA8C2C26EA020600D516437E606E688C
:101960004F6826EA0206BF0300D516436E602E6854
:101970004F6826EA0206FF0300D516432E605B1C63
:101980000A6832FA03F67FF411AFBDE8F88F000061
:1019900080000058F4440258000002580004025825
:1019A00000080258000C0258001002580014025897
:1019B00000180258001C0258002002580024025847
:1019C0000AB1816170470904FBE700000148006823
:1019D000000C70470010005C0148806870470000F0
:1019E000E800002402488168027811448160704751
:1019F000E8000024032010B500F086F801F068FA32
:101A00000F4A104914681368C4F3032203F00F034C
:101A10008A5CC95C02F01F0201F01F01D0400A4A33
:101A200020FA01F11160094908600F2000F010F858
:101A300008B1012010BD00F02BF8002010BD0000FF
:101A400018440258E47D0008F8000024F400002443
:101A500070B50D4D04462878A0B14FF47A71B1FBF2
:101A6000F0F00A490968B1FBF0F002F097F948B9C3
:101A7000102C07D200222146501E00F025F800202D
:101A80006C6070BD012070BDE8000024F4000024EB
:101A9000054808B5016841F002010160006800F0E6
:101AA0000200009008BD0000F4440258002809DB41
:101AB000410900F01F028900012001F1E02190405E
:101AC000C1F80001704700000E4BF0B41B680D46D2
:101AD000C3F30223C3F10706042E00D90426191DFF
:101AE000072901D2002300E0DB1E012404FA06F1DD
:101AF0009C40491E2940641E994014402143F0BC7B
:101B000005F0F7B90CED00E0064900F0070210B54A
:101B10004FF6FF040868044B204040EA02201843B7
:101B2000086010BD0CED00E00000FA05134970B527
:101B30000A68D243520705D5096801F007018142BE
:101B400013D118E00A6822F0070202430A60FFF787
:101B500043FF0A4D4FF47A760446083D07E000BF84
:101B6000FFF73AFF001BB04201D9012070BD286881
:101B7000C0438004F4D4002070BD00000C4802581B
:101B800010B501F05FF905490968054AC1F3021172
:101B9000515C01F01F01C84010BD000020440258F4
:101BA000E47D00084A4930B5494C0B1D0A680C34E5
:101BB00009681D68246802F0030305F00102C1F3FF
:101BC0000511C4F3CC04002914FB02F200EE102A24
:101BD000F8EE400A76D0414A9FED3E1ADFED3E1AFC
:101BE000B7EE000A23B1012B5AD0022B18D15CE0CA
:101BF000374C283C23689B0612D5394B246801EEEC
:101C0000901A1168C4F3C104F8EE612AE34001EEB2
:101C1000903AC1F30801F8EE611A81EEA22A07E0BA
:101C200002EE101A1168F8EE422A81EEA22A45E06F
:101C300001EE901A1168F8EE611A40EE811A71EE09
:101C4000800A62EE200AC1F3462101EE101AB8EEB6
:101C5000411A31EE001AC0EE811ABCEEE11A80ED95
:101C6000001A1168C1F3064101EE101AB8EE411ACC
:101C700031EE001AC0EE811ABCEEE11A80ED011AB5
:101C80001168C1F3066101EE101AB8EE411A31EE87
:101C9000000A80EE801ABCEEC10A80ED020A30BD57
:101CA00001EE901ADFED0F2A03E001EE901ADFED4E
:101CB0000E2A1168F8EE611A82EEA12AC1F308011A
:101CC000B6E7FFE7002101604160816030BD0000A0
:101CD00028440258000000390024744C3044025853
:101CE0000090D0030024744A20BCBE4B494930B553
:101CF000484C0B1D0A68143409681D68246802F0FA
:101D00000303C5F30012C1F30531C4F3CC04002969
:101D100014FB02F200EE102AF8EE400A75D03F4A9A
:101D20009FED3D1AB7EE000A6BB1DFED3D1A012BB6
:101D300001D0022B64D002EE101A1168F8EE422A8C
:101D400081EEA22A21E0334C283C23689B0612D561
:101D5000344B246801EE901A1168C4F3C104F8EE04
:101D6000612AE34001EE903AC1F30801F8EE611AEE
:101D700081EEA22A0BE001EE901ADFED2B2A00BFC4
:101D8000F8EE611A116882EEA12AC1F3080101EE92
:101D9000901A1168F8EE611A40EE811A71EE800A0D
:101DA00062EE200AC1F3462101EE101AB8EE411A84
:101DB00031EE001AC0EE811ABCEEE11A80ED001A75
:101DC0001168C1F3064101EE101AB8EE411A31EE66
:101DD000001AC0EE811ABCEEE11A80ED011A1168FA
:101DE000C1F3066101EE101AB8EE411A31EE000A95
:101DF00080EE801ABCEEC10A80ED020A30BD04E01C
:101E000001EE901ADFED092ABAE700210160416076
:101E10008160F3E728440258000000393844025832
:101E20000024744A0090D0030024744C20BCBE4BA4
:101E3000494930B5484C0B1D0A681C3409681D68B7
:101E4000246802F00303C5F30022C1F30551C4F373
:101E5000CC04002914FB02F200EE102AF8EE400A2E
:101E600075D03F4A9FED3D1AB7EE000A6BB1DFED2A
:101E70003D1A012B01D0022B64D002EE101A11681A
:101E8000F8EE422A81EEA22A21E0334C283C236856
:101E90009B0612D5344B246801EE901A1168C4F3E6
:101EA000C104F8EE612AE34001EE903AC1F3080163
:101EB000F8EE611A81EEA22A0BE001EE901ADFED36
:101EC0002B2A00BFF8EE611A116882EEA12AC1F335
:101ED000080101EE901A1168F8EE611A40EE811ABD
:101EE00071EE800A62EE200AC1F3462101EE101A5B
:101EF000B8EE411A31EE001AC0EE811ABCEEE11ABA
:101F000080ED001A1168C1F3064101EE101AB8EE17
:101F1000411A31EE001AC0EE811ABCEEE11A80EDD2
:101F2000011A1168C1F3066101EE101AB8EE411AE8
:101F300031EE000A80EE801ABCEEC10A80ED020A82
:101F400030BD04E001EE901ADFED092ABAE7002166
:101F5000016041608160F3E72844025800000039C5
:101F6000404402580024744A0090D0030024744C6A
:101F700020BCBE4B2DE9F04FAC4A0546DFF8A8A2C5
:101F800080F48070DFF8AC9289B01311AA4C08433A
:101F9000A748AAF104064FF0805C4FF000582CD0FF
:101FA00085F400770F4357D0DFF87CB285F4806763
:101FB0000F430BF1080B61D085F400670F4374D019
:101FC00085F480570F436ED085F400570F434FF4CC
:101FD00080394FF4003E67D085F400270F4371D05D
:101FE00085F480370F436ED085F480460E436BD066
:101FF00085F400420A4368D02AE0DAF8001001F0C4
:102000000701052924D2DFE801F075BC7D25B10068
:1020100006A8FFF7C7FD079809B0BDE8F08F68462E
:10202000FFF764FE0098F7E703A8FFF701FF0398A6
:10203000F2E72068C0F3C10022FA00F0ECE7226862
:10204000D20571D561456FD11846E5E74145E3D02A
:102050000020E1E74846DFE7DAF8001001F4E0711C
:1020600080294FD004DC002944D04029F0D188E0F9
:10207000C029EFD0B1F5807FEAD177E0DBF800101E
:1020800001F46001B1F5800F3CD004DC91B3B1F5EF
:10209000001FDDD175E0B1F5C00FDBD0B1F5000F49
:1020A000D6D163E001E018E030E0DBF8001001F089
:1020B000E061B1F1007F25D008DCD9B1B1F1807FBA
:1020C000C6D15EE049E06CE079E09CE0B1F1407F90
:1020D000C0D0B1F1806FBBD148E0DAF8001001F454
:1020E000E041B1F5005F0DD005DC19B1B1F5805FBD
:1020F000AED146E094E0B1F5405FABD0B1F5804F92
:10210000A6D133E020688000A2D58DE7DAF8001070
:1021100001F4E021B1F5403F6CD006DC61B14945E6
:102120007AD0714594D157E037E0B1F5802F65D072
:10213000B1F5A02F8CD10CE000F0A6FE6CE768464C
:10214000FFF7D4FD019867E703A8FFF771FE049835
:1021500062E721688903F1D47AE7DBF8001011F413
:1021600040310ED0494510D07145F5D13168256810
:1021700001F040516D077FF562AF00297FF45FAF3A
:1021800057E720680001E7D549E720688000E3D5DC
:1021900003A8FFF74DFE05983EE722689203DBD5C2
:1021A00054E7306810F480303AD04845D4D12068E4
:1021B0000001D1D56846FFF799FD02982CE7DBF8BE
:1021C000001001F0E041B1F1405F13D008DC71B1C3
:1021D000614521D04145BFD120688000B4D437E7A4
:1021E000B1F1804F0AD0B1F1A04FB2D030E7FFF784
:1021F000C7FC11E720684007AED51AE72068C00584
:10220000AAD521E708E0DAF8001011F04051A0D07B
:10221000614505D041459FD1206800018FD417E763
:102220002068800198D5F3E6504402580090D0030E
:1022300040787D010080BB00004402582DE9FE4F2C
:102240000546DFF8E48350F8081B0024F64FC94325
:10225000019005F12800264608F1240800900801A5
:102260001DD4A86E50B1B0F5801F0CD0B0F5001F82
:102270000ED0B0F5401F1ED001240FE0386840F4A6
:102280000030386017E00198022103F0EFF903E015
:102290000098022103F07AFA04000CD02646288820
:1022A000C043C00523D4A86D05281ED2DFE800F086
:1022B0000C11161B1B00AA6ED8F8001021F4401157
:1022C0001143C8F80010EAE7386840F4003038607D
:1022D00009E00198002103F0C9F903E0009800210A
:1022E00003F054FA044674B100E00124264628881D
:1022F000C043800528D4E86D80281ED00CDC90B146
:1023000040280ED114E0AA6DD8F8001021F0070182
:102310001143C8F80010EAE7C02813D0B0F5807F59
:1023200010D001240FE0386840F40030386009E034
:102330000198002103F09AF903E00098002103F0CE
:1023400025FA04469CB126462888DFF8DC92C04373
:1023500009F12C0940052CD4D5F8A800B0F5800F60
:1023600020D00DDCA0B1B0F5001F0FD115E0EA6D53
:10237000D8F8001021F4E0711143C8F80010E3E729
:10238000B0F5C00F13D0B0F5000F10D001240FE04E
:10239000386840F40030386009E00198002103F00B
:1023A00065F903E00098002103F0F0F904467CB1E0
:1023B00026462888C04300052DD4D5F8AC00B0F1DE
:1023C000007F21D00EDCA8B1B0F1807F10D116E0E3
:1023D000D5F8A820D9F8001021F460011143C9F8FC
:1023E0000010E6E7B0F1407F13D0B0F1806F10D05D
:1023F00001240FE0386840F40030386009E00198AB
:10240000002103F033F903E00098002103F0BEF946
:10241000044674B126462868C04380011FD4E86C86
:10242000D8B110280FD0202812D0302815D0012480
:1024300014E0D5F8AC20D9F8001021F0E061114388
:10244000C9F80010E7E7386840F40030386004E06D
:102450000198022103F00AF9044674B1264628883F
:10246000C043C0042BD4286EB0F5005F20D00DDC33
:10247000A0B1B0F5805F0FD115E06B48EA6C203059
:10248000016821F0300111430160E8E7B0F5405FD9
:1024900013D0B0F5804F10D001240FE0386840F41D
:1024A0000030386009E00198002103F0DFF803E014
:1024B0000098002103F06AF904468CB1264628886A
:1024C000C043800429D4686EB0F5403F23D010DCAF
:1024D00008B3B0F5803F14D0B0F5003F0FD115E040
:1024E0002A6ED8F8001021F4E0411143C8F800101A
:1024F000E5E7B0F5802F0ED0B0F5A02F0BD001246A
:102500000AE00198012103F0B1F803E000980121ED
:1025100003F03CF9044694B126462888C0434004A1
:102520002AD4D5F8B000B0F1405F23D010DC08B356
:10253000B0F1805F14D0B0F1005F0FD115E06A6E8A
:10254000D8F8001021F4E0211143C8F80010E4E7A6
:10255000B0F1804F0ED0B0F1A04F0BD001240AE0B3
:102560000198012103F082F803E00098012103F0B3
:102570000DF9044674B126462888C04300041FD4D0
:10258000286FD8B1B0F1805F0ED0B0F1005F10D0ED
:10259000012414E0D5F8B020D9F8001021F0E04172
:1025A0001143C9F80010E7E7386840F4003038609C
:1025B00004E00198012103F059F8044674B126465D
:1025C0002868C043C0011ED4A86CD0B101280ED029
:1025D000022811D0032814D0012413E02A6FD8F860
:1025E000001021F040511143C8F80010E8E73868A6
:1025F00040F40030386004E00198022103F036F81E
:102600000446ACB126462868DFF81CB0C043ABF1E5
:102610001C0B400252D40548016841F480710160EE
:10262000FFF7DAF9824611E02C44025800480258BC
:10263000FA48AA6C016821F0030111430160E2E746
:10264000FFF7CAF9A0EB0A00642835D8F4480068FF
:10265000C005F5D58CBBDFF8C4A3B5F8B4100AF1FA
:10266000240ADAF8000001F4407100F44070884256
:1026700011D0DAF80010DAF8002021F4407142F4A9
:102680008032CAF80020DAF8002022F48032CAF83A
:102690000020CAF80010D5F8B400B0F5807F1AD138
:1026A000FFF79AF9029012E0FFF796F90299411AA2
:1026B00041F2883081420AD9032426462878DFF87F
:1026C0005CA3C0430AF1080AC00721D03CE0DAF855
:1026D00000008007E8D5D5F8B410C1F30120032825
:1026E00058460DD0016821F47C510160B5F8B42042
:1026F000DAF80010C2F30B021143CAF80010DDE74C
:10270000C84A036802EA111223F47C511143ECE732
:10271000E86F182816D005DCA0B1082808D01028CA
:1027200004D10AE020280DD028280BD001240AE08B
:102730000198012102F09AFF03E00098012103F0C3
:1027400025F8044664B126462878C04380071ED485
:10275000A86F062819D2DFE800F0160C111616161D
:10276000EA6FDAF8001021F038011143CAF80010BE
:10277000EAE70198012102F079FF03E000980121C6
:1027800003F004F804467CB100E0012426462878D2
:10279000C04340071FD4D5F89400062819D2DFE8BB
:1027A00000F0160C11161616AA6FDAF8001021F0B8
:1027B00007011143CAF80010E9E70198012102F06E
:1027C00055FF03E00098012102F0E0FF0446A4B1A8
:1027D00000E0012426462878C04380062BD4D5F893
:1027E0009000B0F1405F24D011DC10B3B0F1805FF5
:1027F00015D0B0F1005F10D116E0D5F89420D9F8CB
:10280000001021F007011143C9F80010E3E7B0F10F
:10281000804F0ED0B0F1A04F0BD001240AE00198F8
:10282000002102F023FF03E00098022102F0AEFF36
:10283000044694B126462878C04340062BD4D5F8E8
:102840009C00B0F5406F24D011DC10B3B0F5806F60
:1028500015D0B0F5006F10D116E0D5F89020DAF859
:10286000001021F0E0411143CAF80010E3E7B0F591
:10287000805F0ED0B0F5A05F0BD001240AE0019874
:10288000002102F0F3FE03E00098022102F07EFF37
:10289000044694B126462878C04300062BD4D5F8C8
:1028A000A000B0F5C04F24D011DC10B3B0F5005F2C
:1028B00015D0B0F5804F10D116E0D5F89C20D9F88E
:1028C000001021F4E0511143C9F80010E3E7B0F51E
:1028D000004F0ED0B0F5204F0BD001240AE0019834
:1028E000002102F0C3FE03E00098022102F04EFF37
:1028F000044654B126462878C04300071ED4D5F8B4
:102900008400B0F5805F0AD00FE0D5F8A020D9F898
:10291000001021F460411143C9F80010EBE7009862
:10292000022102F033FF00B10126D5F88420DAF845
:10293000001021F440511143CAF800102878C04318
:10294000C00613D4D5F89800B0F5807F05D1009863
:10295000022102F01BFF00B10126D5F89820D9F81A
:10296000001021F440711143C9F800102868C043D9
:10297000000316D4D5F8A40038B1B0F5803F09D0D3
:10298000B0F5003F0BD001240AE00198002102F0CD
:102990006DFE03E00098022102F0F8FE04468CB1BF
:1029A00026462868C043400322D4D5F88800B0F5F5
:1029B000801F11D0B0F5001F13D0B0F5401F15D007
:1029C000012414E0D5F8A420D9F8001021F44031F6
:1029D0001143C9F80010E4E7386840F4003038606B
:1029E00004E00098012102F0D1FE04465CB12646C5
:1029F0002868C043C00323D4286DA8B1B0F5803F38
:102A000017D001241BE0D5F88820DAF8001021F453
:102A100040111143CAF80010EAE700004C44025884
:102A200000480258CFFFFF00386840F4003038609B
:102A300004E00198022102F019FE0446E4B12646A2
:102A40002868C043800005D40098022102F09EFE51
:102A500000B101262868C04380031BD4D5F880004C
:102A6000B0B1B0F5807F0FD0B0F5007F10D0B0F5D9
:102A7000407F0DD001240CE05A482A6D016821F4F2
:102A8000803111430160DBE7386840F40030386082
:102A9000ECB326462868C043C00207D46A6FD8F852
:102AA000001021F000411143C8F800102868C0430D
:102AB000C00008D4D5F8B820DBF8001021F480411C
:102AC0001143CBF800102868C043800207D4EA6E97
:102AD000D8F8001021F080711143C8F80010286860
:102AE000C04340000CD4DBF8001021F40041CBF8C7
:102AF0000010DBF80010D5F8BC201143CBF8001013
:102B00002868C04308D437486A6D016800E018E0BF
:102B100021F04051114301602868C043000208D4ED
:102B2000D5F88C20DAF8001021F440011143CAF8DE
:102B3000001028790024C04300F0010020430AD08F
:102B40000FE0D5F88020DAF8001021F4407111432D
:102B5000CAF800109EE70198002102F087FD00B13D
:102B600006462879C04300F00200204305D10198B1
:102B7000012102F07BFD00B106462879C04300F038
:102B80000400204305D10198022102F06FFD00B13D
:102B900006462879C04300F00800204305D100987C
:102BA000002102F0F3FD00B106462879C04300F091
:102BB0001000204305D10098012102F0E7FD00B18B
:102BC00006462879C04300F02000044304D1009851
:102BD000022102F0DBFD00B916B10120BDE8FE8F35
:102BE0000020FBE74C4402582DE9F05F04000F463B
:102BF0007ED0DFF83882D8F8000000F00F00B8422D
:102C00000CD2D8F8001021F00F013943C8F8001099
:102C1000D8F8000000F00F00B84269D12078844D48
:102C200040070AD52069296801F07001884204D95B
:102C3000296821F070010143296020787C4E361DFF
:102C400000070AD56069316801F07001884204D933
:102C5000316821F07001014331602078C0060AD547
:102C6000A069316801F4E061884204D9316821F437
:102C7000E061014331602078DFF8B4B180060BF1E8
:102C8000080B0CD5E1695846DBF8002002F0700211
:102C9000914204D9026822F070020A43026020784F
:102CA00080070AD5E068296801F00F01884204D93D
:102CB000296821F00F01014329602078C0073ED028
:102CC0005B49A2682868183920F4706010432860B6
:102CD0006068022818D0032819D00968012819D083
:102CE000490700294ADADFF848A1AAF1080A00E0FA
:102CF00044E0DAF8002022F007020243CAF800207C
:102D0000FEF76AFE814612E009688903E9E709686F
:102D10008901E6E7C905E4E7FEF75EFEA0EB0901DD
:102D200041F28830814202D90320BDE8F09F6168FA
:102D3000DAF8000000F03800B0EBC10FECD12078D9
:102D400080070AD5E068296801F00F01884204D2A3
:102D5000296821F00F0101432960D8F8001040468E
:102D600001F00F01B9420BD9016821F00F0139437D
:102D70000160006800F00F00B84201D00120D4E7E4
:102D8000207840070AD52069296801F0700188423F
:102D900004D2296821F070010143296020780007DE
:102DA0000AD56069316801F07001884204D2316847
:102DB00021F07001014331602078C0060AD5A06976
:102DC000316801F4E061884204D2316821F4E061A5
:102DD00001433160207880060CD5E1695846DBF864
:102DE000002002F07002914204D2026822F07002C8
:102DF0000A43026000F06CF80E492A682B68C2F39F
:102E0000032203F00F038A5CC95C02F01F0201F089
:102E10001F01D040084A20FA01F1116007490860FB
:102E200007480068BDE8F05FFEF712BE00200052C0
:102E300018440258E47D0008F8000024F40000243F
:102E4000EC00002430B500F043F80B4A0B490C4B62
:102E500015681468C5F3032204F00F048A5C095D49
:102E600002F01F0201F01F01D040064A20FA01F1D2
:102E700019601060084630BD18440258E47D00080F
:102E8000F8000024F400002400B5FFF7DBFF05493B
:102E90000968054AC1F30211515C01F01F01C840E5
:102EA00000BD00001C440258E47D000800B5FFF797
:102EB000C9FF05490968054AC1F30221515C01F0C7
:102EC0001F01C84000BD00001C440258E47D0008FA
:102ED000454970B545480968434B103B11F038022D
:102EE00008D00111082A03D0102A0BD0182A0BD0C1
:102EF000084670BD19688906FBD51968C1F3C10180
:102F0000C84070BD3A4870BD3749374D18310C1D67
:102F100024350A68096826682D6802F0030406F063
:102F20000102C1F30511C5F3CC0515FB02F200EE59
:102F3000102AB8EE400AE9B32F4ADFED2E0AB7EEA9
:102F4000001A6CB1DFED2D1A012C01D0022C43D0F8
:102F500002EE101A1068F8EE422A81EEA22A1EE054
:102F60001C68A40611D51B6801EE901A1168C3F302
:102F7000C103F8EE612AD84001EE900AC1F30800BF
:102F8000F8EE611A81EEA22A0BE001EE901ADFED55
:102F90001C2A00BFF8EE611A106882EEA12AC0F365
:102FA000080001EE900AF8EE611A40EE201A31EEA8
:102FB000810A00E015E022EE000A1068C0F3462006
:102FC000401C00EE900AF8EE600A80EE201ABCEE7B
:102FD000C10A10EE100A70BD01EE901ADFED092A49
:102FE000D8E7002070BD0000104402580090D003C4
:102FF00040787D0100000039304402580024744AB2
:103000000024744C20BCBE4B2DE9F05F04007DD041
:10301000FF4F2078FE4D1837DFF8F493103DC007BE
:1030200048D0D9F80000396800F03800102815D0D1
:10303000182803D101F0030002280FD06068B0F512
:10304000803F12D010B1B0F5A02F18D0286820F41E
:1030500080302860286820F4802009E028688003F8
:1030600028D560680028D2D024E0286840F4803059
:103070002860606888B1FEF7AFFC064609E0286862
:1030800040F480202860F0E7FEF7A6FC801B64284F
:103090006FD828688003F7D50CE0FEF79DFC064644
:1030A00005E000BFFEF798FC801B6428F0D8286874
:1030B0008003F7D4207841F20308D54E0C3E8007F8
:1030C00069D5D9F80000396810F038000ED01828FA
:1030D00001D188070AD0E06890B3296821F019016E
:1030E00001432960FEF778FC824631E028684007FA
:1030F00002D5E06800288AD0E168286820F019002D
:1031000008432860FEF768FC824607E0DFE000BF66
:10311000FEF762FCA0EB0A000228B9D82868400735
:10312000F6D500BFFEF752FC40451BD82069402869
:1031300012D0316821F47C3141EA003030602AE05D
:1031400018E000BFFEF748FCA0EB0A0002289FD859
:1031500028684007F6D5E5E7306820F47C3040F475
:103160000030EBE7207C316821F0FE4141EA00604D
:10317000E4E70DE1286820F001002860FEF72CFC50
:10318000824605E0FEF728FCA0EB0A0002288DD855
:1031900028684007F6D42078C0065DD5D9F800002D
:1031A000DFF86CB2396800F03800ABF1040B082886
:1031B00010D0182803D101F0030001280AD0E069DB
:1031C0000028286838D040F080002860FEF704FC12
:1031D000824623E02868C00523D5E069802876D19F
:1031E0001FE0206A202821D0316821F0F84141EA0F
:1031F0008060306030E000BF94F82010DBF80020E1
:1032000022F07C5242EA0161CBF8001024E000BFBA
:10321000FEF7E2FBA0EB0A00022898D82868C00558
:10322000F6D5FEF7D3FB4045E6D8DAE7306820F064
:10323000F84040F08040DCE720F080002860FEF796
:10324000CBFB064605E000BFFEF7C6FB801B02284D
:103250009DD82868C005F7D42078000729D56C4888
:103260006169643000298046016811D041F0010194
:103270000160FEF7B1FB064605E000BFFEF7ACFBC0
:10328000801B0228C9D8D8F800008007F6D510E0C6
:1032900021F001010160FEF79FFB064605E000BF3B
:1032A000FEF79AFB801B022872D8D8F8000080072E
:1032B000F6D42078800623D5A0690028286810D08D
:1032C00040F480502860FEF787FB064605E036E1B3
:1032D000FEF782FB801B02285AD828688004F7D5A5
:1032E0000EE020F480502860FEF776FB064604E0EE
:1032F000FEF772FB801B02284AD828688004F7D4A6
:10330000207840074FD5DFF80C81D8F8001041F441
:103310008071C8F80010FEF75FFB064605E000BFAD
:10332000FEF75AFB801B642832D8D8F80000C0058D
:10333000F6D5374EA068603601280AD008B10528B6
:1033400013D0306820F001003060306820F00400B5
:1033500002E0306840F001003060A06841F2883A35
:1033600090B1FEF739FB80460AE0306840F0040077
:103370003060EEE7FEF730FBA0EB0801514507D8BF
:1033800030688007F6D50EE0FEF726FB804607E0A2
:1033900084E000BFFEF720FBA0EB080151457DD87B
:1033A00030688007F6D4606AB0B3DFF86480D9F87B
:1033B000001008F120084FF6F87B08F10409C1F36A
:1033C000C2010329A8F1040A69D00228286820F064
:1033D0008070286003D0FEF7FFFA044684E0FEF711
:1033E000FBFA064605E000BFFEF7F6FA801B02284E
:1033F00077D828688001F7D4E26A40F2F331386860
:1034000054F8283F884340EA02101843386004E02B
:103410001044025800480258B5E0217B43462289F7
:103420004FF4FE0C208A4FF0FE474902267D521EC3
:10343000401EA1F50071C2F308088AB2761E0CEA9C
:10344000004042EA08020243504607EA06610A4386
:103450001A60DAF8002022F00102CAF80020D9F838
:103460000020266A22EA0B0242EAC602C9F80020BE
:10347000DAF80010A26921F00C011143CAF800101B
:103480000168E26921F0020111430160016841F421
:1034900080310160016841F4003101E021E027E062
:1034A0000160016841F480210160016841F001017F
:1034B0000160286840F080702860FEF78DFA0446AD
:1034C00005E000BFFEF788FA001B022809D828682B
:1034D0008001F7D557E000BFFEF77EFA001B0228F7
:1034E00002D90320BDE8F09F28688001F4D44AE0A7
:1034F00039680128D8F8000021D0A26A01F003033E
:1035000093421CD1E26AC1F305118A4217D1216BA3
:10351000C0F30802491E8A4211D1616BC0F34622F2
:10352000491E91420BD1A16BC0F30642491E914244
:1035300005D1E16BC0F30660491E814201D0012034
:10354000D0E7A16C4E46D9F80000C0F3CC00814210
:1035500019D0DAF80000554620F00100CAF8000042
:10356000FEF73AFA4FEA0007FEF736FAB842FBD008
:10357000A26C306820EA0B0040EAC2003060286884
:1035800040F0010028600020ACE72DE9F04104463E
:1035900090F89000002501280FD0012684F8906053
:1035A00020680168890333D5016821F40031016086
:1035B00094F89100122803D014E00220BDE8F081B5
:1035C000D4F8800070B1FDF7E1FD58B1D4F8800067
:1035D000406D802806D0D4F89400012540F080008A
:1035E000C4F8940094F89100222811D1D4F88400F2
:1035F00070B1FDF7CBFD58B1D4F88400406D802840
:1036000006D0D4F89400012540F08000C4F894005E
:1036100021680027781E0F6121688861204602F02A
:10362000C5FA00B101252068416841F008014160F8
:1036300084F89160284684F89070BFE770470000D6
:103640002DE9F041044690F89100002874D02068DC
:10365000426901690368150707D50D0705D5D4F838
:103660008C102046BDE8F0410847D5074FF0010611
:1036700010D0CD070ED0866194F89100222807D093
:103680005FF00200D4F894100143C4F8941079E07C
:103690000120F7E795070AD58D0708D5022181613A
:1036A000D4F88800002870D0BDE8F0410047384DBC
:1036B000970631D58F062FD5202181619A03D4F842
:1036C0009400002A40F0040032E000BFD4F88000EB
:1036D00070B10565D4F88000FDF708FF40B1D4F85B
:1036E000940040F08000C4F894002046FFF7A6FF45
:1036F000D4F88400002848D00565D4F88400FDF78C
:10370000F5FE002841D0D4F8940040F0800037E066
:103710002046FFF73AFF35E057060ED54F060CD589
:10372000402181619A03D4F89400002A40F00800F7
:10373000C4F89400ECDAC9E727E0570716D54F071D
:1037400014D5042181619A03D4F8940040F020003C
:10375000C4F89400BAD422680020411E1061226887
:10376000916184F89160A4F87E000BE0D2060CD53C
:10377000C9060AD510218161D4F8940040F01000E8
:10378000C4F894002046FFF759FFBDE8F08100001F
:10379000695B00082DE9F05F040049D0FEF716F9D7
:1037A00094F83800CF49DFF840A3012809D12068F8
:1037B000884201D050453BD16068012838D1606C07
:1037C000B0BBDFF820838B46206808F120085845FD
:1037D00001D0404502D1C348001F1BE0C3498842C5
:1037E00003D0C2492031884202D1C048001F11E0F5
:1037F000BF49884203D0BE492031884202D1BC482B
:10380000001F07E0504503D0B749203188420FD14F
:10381000B548001F814694F8910028B9002084F82B
:103820009000204600F06CF9204602F0BFF910B17C
:103830000120BDE8F09FE068022184F8911020B1DA
:1038400001280CD002280CD00020A1684FF400669B
:10385000062908D2DFE801F007090C6A6D70102014
:10386000F3E72020F1E7002503E04FF4806500E056
:103870003546C9F80000206A4FF40077E8B32168A4
:103880000020594501D0414504D100214FF48070FA
:10389000FEF770FB954A2168914203D0934A20328B
:1038A000914203D100213846FEF764FB904A21681B
:1038B000914203D08E4A2032914203D100213846F2
:1038C000FEF758FB2268524504D100214FF4806076
:1038D000FEF750FB8449226820318A4203D100213F
:1038E0003046FEF747FBA169B1F5002F27D0A16A4A
:1038F000B1F1806F37D0012100E038E0226A00EB9F
:10390000800040004A431102B0FBF1F00A22B0FBF4
:10391000F2F3B0FBF2F1616202FB1300082801D957
:10392000491C6162606C04281FD020E040F0010057
:103930009EE740F002009BE740F0030098E7616CCF
:1039400004290BD008290BD0D4F8541000EB8000C8
:10395000226A4A434000B0FBF2F0D7E74021F5E786
:103960004FF48071F2E70221C6E7480860626068A0
:1039700078B302282ED0206D012800D00027FEF752
:1039800025F8B0F5005F206828D35A4A0168114035
:103990000160D4E911316068D4F84CC0184341EAA1
:1039A0000C01B4F824C0084321683843D4E9053633
:1039B000D4E90A82284325698E46096810431843D2
:1039C000304340EA0C5040EA08002843084371465F
:1039D00021E0FFE7206D0128D0D0D0E7464A0168FA
:1039E00011400160D4E911626068E16C3043B4F8C1
:1039F00024800A431043D4E9056CD4E90A232168E2
:103A0000384328430D681843304340EA0C0040EA2D
:103A1000085010432843086020686FF0FF01374AC0
:103A20004EF20F064FF220074568B5434560206807
:103A3000D4F81CC0266B456845EA0C05D4F834C0A0
:103A400046EA0C0635434560206885681540856068
:103A5000D4E91850D4E916C2666D10432268761E68
:103A600035432843956801EB0C263043284390608A
:103A700054F8680BC2683A40C26094E8C100A58956
:103A800054F8682D01EB072141EA05413043D56820
:103A900008432843D0602068584501D0504518D1CC
:103AA000D9F8440020F00101C9F8441094F8380016
:103AB00001280ED1D4E90F106FF00F0202EB0111B3
:103AC0000843C9F84400D9F8440040F00101C9F89E
:103AD00044100020C4F89400012184F8911084F867
:103AE0009000A6E60458014004540058045C0140CC
:103AF0000460014010C005F010C005F80080F8FF18
:103B00002DE9F0474E490746006800264D4D86B026
:103B10004D4C88424FF002084FF006091ED1206834
:103B200078B9286840F480002860286800220121C4
:103B300000F4800005905720FDF7C6FF5720FDF7E1
:103B4000B5FF206874236946401C20600093CDE9CE
:103B500001863E48CDE90369FDF71CFE3C48396803
:103B6000DFF8F0A0814220D1606878B9286840F47D
:103B70000000286028680022022100F4000005905F
:103B80005B20FDF7A1FF5B20FDF790FF60680A2333
:103B90004FF400626946401C606000925046CDE9D7
:103BA0000186CDE90363FDF7F5FD2B4938688842AE
:103BB0001ED1A06878B9286840F080702860286815
:103BC0000022032100F0807005907220FDF77CFF39
:103BD0007220FDF76BFFA1685046491CA160CDF82B
:103BE00000806946CDE90186CDE90369FDF7D2FD84
:103BF00019483968203081421FD1A06878B92868F7
:103C000040F08070286028680022032100F0807056
:103C100005907220FDF758FF7220FDF747FFA1685D
:103C20004FF400735046491CA16000936946CDE9EA
:103C30000186CDE90369FDF7ADFD06B0BDE8F0876B
:103C400004580140F0440258DC00002400100258DF
:103C5000045C0140000C02580460014070B5044649
:103C600029B122B194F89100012802D036E0012058
:103C700070BD94F89000012830D0A4F87C20002575
:103C8000A4F87E200122A06CA167222184F8902054
:103C9000C4F8945084F89110402803D0802806D8A6
:103CA0000F4805E0206B0028FAD10E4800E00E48CE
:103CB0000121C4F88C00204601F0D8FF21680A6970
:103CC0001043086120680168C90303D4016841F406
:103CD00080310160002084F8905070BD022070BDDA
:103CE0009F5C0008535D0008EF5C0008704700000F
:103CF00070B5044629B122B194F89100012802D090
:103D000039E0012070BD94F89000012833D0A4F868
:103D10007C200025A4F87E200122A06CA16712213E
:103D200084F89020C4F8945084F89110402803D06F
:103D3000802806D8114805E0206B0028FAD11048E9
:103D400000E01048C4F88C00204601F04FFF01212C
:103D5000204601F08BFF21680A6910430861206842
:103D60000168C90303D4016841F480310160002077
:103D700084F8905070BD022070BD0000995D00086D
:103D8000475E0008E75D000870470000024A1368BC
:103D900083430B431360704704040058401EB0F186
:103DA000807F10B501D3012010BD4FF0E024606189
:103DB0000F21601703F09DF80020A0610721216109
:103DC00010BD704770477047F0B590F83C20012A4D
:103DD0003BD01F4E012480F83C40022280F83D2059
:103DE00002681C4D5368B242D2F808C001D0AA4202
:103DF00003D14F6823F470033B430F6823F0700333
:103E00001F4357600268B24213D0B2F1804F10D006
:103E1000114B9A420DD0114B9A420AD0104B9A4244
:103E200007D0AA4205D00F4B9A4202D00E4B9A42BD
:103E300004D189682CF0800319439160002180F837
:103E40003D4080F83C100846F0BD0220F0BD000067
:103E50000000014000040140000400400008004050
:103E6000000C0040001800400040014010B5040064
:103E700003D094F83D0010B107E0012010BD0020F0
:103E800084F83C00204600F023F8022084F83D002E
:103E90002068211D02F0B8FA012084F8480084F857
:103EA0003E0084F83F0084F8400084F8410084F824
:103EB000420084F8430084F8440084F8450084F804
:103EC000460084F8470084F83D00002010BD000043
:103ED00008B501681648B1F1804F0AD0154A9142E1
:103EE00019D1016841F002010160006800F0020090
:103EF0001BE0016841F00101016000680022062119
:103F000000F0010000901C20FDF7DEFDBDE8084038
:103F10001C20FDF7CBBD084A914207D1016841F052
:103F200004010160006800F00400009008BD00007A
:103F3000E8440258000400400008004090F83D109A
:103F4000012901D001207047174A022180F83D1055
:103F50000168CB6843F00103CB600068904214D045
:103F6000B0F1804F11D0114988420ED010498842DB
:103F70000BD01049884208D00F49884205D00F491C
:103F8000884202D00E49884207D181680D4A11400B
:103F9000062906D0B1F5803F03D0016841F0010148
:103FA0000160002070470000000001400004004054
:103FB00000080040000C00400004014000180040D0
:103FC000004001400700010070B5044690F83C0035
:103FD0000025012814D03A4B012684F83C600220C9
:103FE00084F83D0022689068184020F47F4090607B
:103FF000086870282FD010DC10F00F0F03D022E0DB
:104000004FF0020070BD4FEA2012072A1BD2DFE8F2
:1040100002F0535353534B394100B0F1101F4BD0B2
:1040200009DCB0F5805F0FD0B0F5005F1ED0B0F5B1
:10403000801F08D140E0A0F5801120393CD0102924
:104040003AD0202938D0012584F83D60002084F83A
:104050003C00284670BD4A682068D1E9021302F08E
:1040600042FA2068816841F0770109E04A682068D7
:10407000D1E9021302F037FA2068816841F48041E7
:104080008160E1E7CA684968206802F0DBFB2068CC
:10409000502106E0CA684968206802F0E4FB206805
:1040A000602102F029FACFE7CA684968206802F067
:1040B000C9FB20684021F4E7226801461046F0E77A
:1040C00088FFCEFF704770B504460068002501697F
:1040D000C943890715D4C168C943890711D4EA1EA9
:1040E000026101212177206880698007204602D083
:1040F000FFF7E8FF04E000F0E7F8204600F0A9F938
:10410000257720680169C943490717D4C168C943A5
:10411000490713D402216FF004020261217720685D
:10412000806910F4407F204602D0FFF7CBFF04E007
:1041300000F0CAF8204600F08CF925772068016964
:10414000C943090716D4C168C943090712D4042119
:104150006FF00802026121772068C069800720465D
:1041600002D0FFF7AFFF04E000F0AEF8204600F009
:1041700070F9257720680169C943C90617D4C16859
:10418000C943C90613D408216FF0100202612177D8
:104190002068C06910F4407F204602D0FFF792FFEC
:1041A00004E000F091F8204600F053F925772068EC
:1041B0000169C943C90708D1C168C943C90704D106
:1041C000891E0161204600F0CDF920680169C943CC
:1041D000090609D4C168C943090605D46FF08001F6
:1041E00001612046FFF7EEFD20680169C943C9055A
:1041F00009D4C168C943090605D46FF4807101610F
:104200002046FFF7DEFD20680169C943490609D44D
:10421000C168C943490605D46FF0400101612046D9
:1042200000F0A1F920680169C94389060BD4C1686F
:10423000C943890607D46FF0200101612046BDE81B
:104240007040FFF7C0BD70BD30B587B00446142183
:104250006846FCF708F924680021174DC023154A69
:104260000220AC420FD1146844F0040414601268B8
:10427000009302F004020592CDE90101CDE903109B
:104280000E48694611E00E4DAC4210D1146844F05E
:10429000020414601268009302F002020592CDE954
:1042A0000101CDE9031007486946FDF773FA07B02D
:1042B00030BD0000E04402580004004000080258ED
:1042C0000008004000040258704770B5044690F89A
:1042D0003C0000260D4601280BD0012084F83C004C
:1042E0000C2A4AD007DC82B1042A20D0082A06D141
:1042F00031E0022070BD102A53D0142A63D0012669
:10430000002084F83C00304670BD206802F0FEF8C2
:104310002068816941F0080181612068816921F08C
:104320000401816120682A698169114311E02068D4
:1043300002F040F92068816941F4006181612068E0
:10434000816921F48061816120682969826942EA7A
:1043500001218161D4E7206802F078F92068C16901
:1043600041F00801C1612068C16921F00401C16107
:1043700020682A69C169114311E0206802F0B2F98E
:104380002068C16941F40061C1612068C16921F4FC
:104390008061C16120682969C26942EA0121C16165
:1043A000AEE7206802F0DAF92068416D41F00801BB
:1043B00041652068416D21F00401416520682A694A
:1043C000416D114311E0206802F002FA2068416D4E
:1043D00041F4006141652068416D21F480614165CF
:1043E00020682969426D42EA0121416588E710B5DC
:1043F000040003D094F83D0010B107E0012010BD87
:10440000002084F83C00204600F022F8022084F8C6
:104410003D002068211D01F0F7FF012084F84800CD
:1044200084F83E0084F83F0084F8400084F841009E
:1044300084F8420084F8430084F8440084F845007E
:1044400084F8460084F8470084F83D00002010BD41
:104450007047704730B504464FF0020269B1042935
:1044600012D0082917D00C291CD0102921D094F87B
:104470004300012824D0012030BD94F83E000128DB
:10448000F9D184F83E201DE094F83F000128F2D1D4
:1044900084F83F2016E094F840000128EBD184F81E
:1044A00040200FE094F841000128E4D184F8412035
:1044B00008E094F842000128DDD184F8422001E0B0
:1044C00084F843200122206802F000F81B4B20688A
:1044D0001B491C4A984209D0884207D0904205D017
:1044E000194DA84202D0194DA84203D1456C45F49C
:1044F000004545642068984212D0B0F1804F0FD03B
:10450000134B98420CD0134B984209D0124B98424F
:1045100006D0884204D01149884201D0904207D188
:1045200081680F4A1140062906D0B1F5803F03D0BB
:10453000016841F001010160002030BD0000014030
:104540000004014000400140004401400048014097
:104550000004004000080040000C0040001800402B
:10456000070001007047704730B590F884100129AA
:1045700018D0012280F884202421C0F8881000225D
:10458000202401680B680D6823F0005325F0010515
:104590000D60426601680B60C0F8884080F8842096
:1045A000104630BD022030BD7047704770B50446DC
:1045B00090F8840001281DD0012284F88420242052
:1045C000C4F8880020680568026822F001020260D1
:1045D0002068826822F060620A438260204602F00E
:1045E0005BF92268202100201560C4F8881084F847
:1045F000840070BD022070BD70B5044690F8840040
:1046000001281DD0012284F884202420C4F88800C9
:1046100020680568026822F0010202602068826852
:1046200022F060420A438260204602F035F9226897
:10463000202100201560C4F8881084F8840070BD23
:10464000022070BD70477047704700002DE9F041AF
:1046500007680025044640F60F030226F86939680A
:10466000BA6818420AD183067ED501F0200302F011
:10467000805C53EA0C0377D0616F74E1CF4BDFF8B5
:1046800040C3134001EA0C0C53EA0C0C6CD05FEAF7
:10469000C07C0CD05FEAC15C09D54FF0010CC7F8B3
:1046A00020C0D4F8907047F00107C4F890708707D5
:1046B00009D5D70707D027683E62D4F8906046F046
:1046C0000406C4F8906046070AD5D60708D02768C4
:1046D00004263E62D4F8906046F00206C4F890606A
:1046E00006070CD501F020061E4308D026680823D3
:1046F0003362D4F8903043F00803C4F890300305D7
:104700000BD54B0109D526684FF400633362D4F80A
:10471000903043F02003C4F89030D4F89030002B50
:104720003DD0800609D501F0200002F080510843F9
:1047300003D0616F09B1204688472168D4F8900002
:104740008968490602D410F0280F2AD0204602F0CA
:1047500089F92068806840061ED52068083050E836
:10476000001F21F0400100E021E040E80012002A93
:10477000F3D1D4F8800078B192490165D4F8800073
:10478000FCF7B4FE00280AD0D4F88000016D00E0E8
:104790002046BDE8F04108472046FFF755FFBDE839
:1047A000F0812046FFF750FFC4F89050F7E7D4F8A7
:1047B0006CC02023BCF1010F7ED15FEAC06C7BD5B9
:1047C0005FEAC16C78D510203862206880684006A6
:1047D00073D5D4F880107C4A0868904234D07A4A65
:1047E0001832904230D0784A303290422CD0764AFB
:1047F0004832904228D0744A6032904224D0724AA3
:104800007832904220D0704A903290421CD06E4A4A
:10481000A832904218D06D4A904215D06B4A183297
:10482000904211D0694A303290420DD0674A4832E6
:10483000904209D0654A6032904205D0634A78328E
:10484000904201D0614A903240680004000CA6D02A
:10485000B4F85C208242A2D9A4F85E00C869B0F521
:10486000807F2FD0216851E8000F20F4807041E84C
:104870000002002AF6D12068083050E8001F21F01D
:10488000010140E80012002AF5D12068083050E804
:10489000001F21F0400140E80012002AF5D1C4F8C1
:1048A0008C30E566216851E8000F20F0100041E8E7
:1048B0000002002AF6D101E040E00BE0D4F88000CD
:1048C000FCF764FC2667B4F85C00B4F85E10401A8C
:1048D00081B22FE0B4F85C00B4F85E10B4F85E204A
:1048E000401A81B2002AB2D00029B0D0226852E822
:1048F000000F20F4907042E80007002FF6D1344FEB
:10490000206800F1080050E8002F02EA070240E8A2
:10491000002CBCF1000FF3D1C4F88C30E56665675C
:10492000206850E8002F22F0100240E80023002BFE
:10493000F6D126672046FFF737FE30E7C60209D5D5
:10494000560207D54FF4801038622046BDE8F0418A
:10495000FFF779BE06060AD501F0800602F40002D0
:10496000164304D0A16F00297FF412AF17E7420667
:1049700011D54A060FD52046026852E8001F21F0E3
:10498000400142E80014002CF6D1C0F88830856759
:1049900000F0A2F803E7020206D54A0004D520463B
:1049A000BDE8F041FFF74EBEC001C6D50029C4DA0C
:1049B0002046BDE8F041FFF7F8BD000001000010FF
:1049C000200100044F6A0008100002401004024059
:1049D000FEFFFFEF10B5040003D0D4F8880010B13B
:1049E00007E0012010BD002084F88400204600F07C
:1049F00027F82420C4F888002068016821F001010C
:104A00000160204602F058F80128EBD0A06A10B1EE
:104A1000204601F063FF2068416821F49041416025
:104A20002068816821F02A0181602068016841F0D6
:104A3000010101602046BDE8104001F0B3BF000055
:104A400010B5B6B00446142130A8FBF70CFDC02108
:104A50006846FBF708FD1D492068884233D10020D5
:104A60001E9002210446CDE900106846FDF7E6FBE2
:104A700008B1FBF7CCFE1648016841F480110160D3
:104A8000006800F48010359011480838016841F042
:104A900002010160006830AB022100F00200359095
:104AA0004FF440500E2283E813000A4830A9CDE9A4
:104AB0003342FCF76FFE002205213520FDF704F894
:104AC0003520FCF7F3FF36B010BD00000050004069
:104AD000E8440258000402587047FEE78068C0F3BB
:104AE000C00070478068C0F3800070478068C0F3E2
:104AF0008000704710B5042404EAD1540723C1F3A1
:104B0000045120448B408A404169994311434161DB
:104B100010BD000030B58BB0002468461C210794FE
:104B200008940994FBF79FFC1C4804251A490822A5
:104B30000123E0E8021480E8340004734473036145
:104B40000475C461046244628462C46280F83040C7
:104B50001248FCF7E3F808B1FBF759FE0F4807A924
:104B60000794FBF757FE08B1FBF751FE0C480621EE
:104B700040F2FF7203928DE8130008486946CDE9C0
:104B800004548DF81940FBF7D9FE002801D0FBF73B
:104B90003EFE0BB030BD000000200240200100248A
:104BA0000800900C30B587B01C216846FBF75BFC11
:104BB000184800241649042508220123E0E80214BD
:104BC00080E834000473447303610475C4610462B3
:104BD00044628462C46280F830400E48FCF79EF85C
:104BE00008B1FBF714FE0C48062140F2FF72039255
:104BF0008DE8130007486946CDE904548DF8194043
:104C0000FBF79CFE002801D0FBF701FE07B030BD8A
:104C100000210240840100242000F01470B588B007
:104C20001C216846FBF71FFC18480024164904267F
:104C300008220125E0E8021480E85400047344735C
:104C400005610475C461046244628462C46280F8D0
:104C500030400E48FCF762F808B1FBF7D8FD06209B
:104C600040F2FF71009503916946CDE901040748C0
:104C7000CDE904648DF81940FBF760FE002801D0EF
:104C8000FBF7C5FD08B070BD00600258E8010024C4
:104C90002DE9F04786B014216846FBF7E4FB414854
:104CA000016841F010010160016801F010010591F7
:104CB000016841F080010160016801F08001059107
:104CC000016841F004010160016801F004010591EF
:104CD000016841F001010160016801F001010591E5
:104CE000016841F002010160016801F002010591D3
:104CF000016841F008010160006800222A4F02218A
:104D000000F0080005903846FCF75AFEDFF89C805A
:104D1000002280214046FCF753FEDFF894900022E9
:104D200038214846FCF74CFEDFF888A0002202211B
:104D30005046FCF745FE00256946082001240294F0
:104D4000CDE900055046FCF725FD03206946022603
:104D5000CDE90064CDE902503846FCF71BFD202068
:104D60006946CDE9000514480294FCF713FD802044
:104D700069468DE8310040460394FCF70BFD38206E
:104D800069468DE8310048460394FCF703FD009620
:104D90006946CDE9014550460394FCF7FBFC06B09B
:104DA000BDE8F087E044025800000258000C0258A9
:104DB0000004025800100258000802581C48002144
:104DC0002DE9F041194C0122046080234164540311
:104DD00083644BF6803341601604C0E9131281608E
:104DE0009704C0E90541C0E90713C16214020163D9
:104DF0002025C2604023416380F83810C26302223C
:104E000004640324C0E9176100F16C06C0E919715C
:104E100086E81600C0E91535FEF7BCFC002803D073
:104E2000BDE8F041FBF7F3BCBDE8F0810458014058
:104E30004C0200241A4800212DE9F041174C80252E
:104E40000460022242600123C0E911151403446189
:104E50008260D401C0E91313C161D703C1624FF46A
:104E6000802C016320264163402580F83810C0E97A
:104E70000F3400F16C04C0E917710323C0E919C1B4
:104E800084E80E00C0E91556FEF784FC002803D024
:104E9000BDE8F041FBF7BBBCBDE8F081045C01401C
:104EA000E40200242DE9F05F30484FF0800A2E49DB
:104EB00000244FF001094FF040084FF4005B4B46CF
:104EC00001600226C0E9114AC0F814B00325C0E908
:104ED0001349C4612021C46200F1580C0463CA0262
:104EE0004463CF00C0E9015680F83840C0F85480D0
:104EF0008CE81600446645678466C0E90F37C0E950
:104F00001B46FEF747FC08B1FBF781FC17484FF43E
:104F1000803C154B494698302033C0E9114AC0E91E
:104F20001349C461C0F814B0C0F80890C462C0E965
:104F3000003504632023446380F83840C0E917C477
:104F4000446645678466C0E90F17C0E91583C0E968
:104F50001B46FEF71FFC002803D0BDE8F05FFBF7FF
:104F600056BCBDE8F09F0000046001407C030024B3
:104F700030B587B01748002440F27F724FF080416F
:104F800040F29F13009401948D15029403940494AD
:104F90000594069480E816008461C0E90335FEF7A5
:104FA00065FF08B1FBF733FC4FF4805000900948CF
:104FB0006946FFF709F808B1FBF729FC054804A981
:104FC00004940694FEF700FF002801D0FBF71FFCB5
:104FD00007B030BDAC04002430B58FB000241C21D4
:104FE000009407A8019402940394049405940694F1
:104FF000FBF739FA224840F24F12204D772369150A
:105000000161C0E902428461C0E90053FEF72EFF4E
:1050100008B1FBF7FCFB4FF480500090184869463C
:10502000FEF7D2FF08B1FBF7F2FB1548FFF7DFF9F7
:1050300008B1FBF7ECFB124804A904940694FEF7B0
:10504000C3FE08B1FBF7E3FB6020CDE907040C4881
:10505000002207A909940B94FFF737F908B1FBF771
:10506000D6FB0748042207A9FFF72FF908B1FBF781
:10507000CEFB0348FFF7E8F80FB030BD0004004056
:10508000F804002430B58FB000241C21009407A838
:10509000019402940394049405940694FBF7E3F9B5
:1050A000244842F20F72224D4BF67F33691501619D
:1050B000C0E902428461C0E90053FEF7D7FE08B19F
:1050C000FBF7A5FB4FF4805000901A486946FEF7A5
:1050D0007BFF08B1FBF79BFB1648FFF788F908B187
:1050E000FBF795FB134804A904940694FEF76CFEA5
:1050F00008B1FBF78CFB02216020079004220D48C9
:10510000CDE9084107A90B920022FFF7DEF808B1AC
:10511000FBF77DFB0748042207A9FFF7D6F808B183
:10512000FBF775FB0348FFF78FF80FB030BD0000A9
:1051300000080040440500241848002110B5164C12
:105140000C224FF4E1330460C0E90131C160C0E9D1
:1051500004128161C161016241628162FFF73AFC20
:1051600008B1FBF754FB0D480021FFF745FA08B1E1
:10517000FBF74DFB09480021FFF718FA08B1FBF7D0
:1051800046FB0648FFF7F0F9002803D0BDE81040C1
:10519000FBF73DBB10BD000000500040900500240F
:1051A000FEE7000060EEA01A3F48F7EE006A9FEDB0
:1051B0003C5BB7EEE14A2DED028B76EEE00AD0EDD6
:1051C000121A90ED0F7A90ED0B6A01EEC10A24EEEF
:1051D000055B20EE871A60EEA11AB7EEC08A9FED3C
:1051E000332B9FED343B25EE045BB7EEC17AB7EE6F
:1051F000E14A25EE081BB7EEC66AB7EEC10BB7EE63
:10520000C01A06EE021B31EE071BB7EEC11B80ED84
:105210000F1A80ED0B0AD0ED0C1AB7EEC15A90EDC3
:10522000100AB7EEE16A20EE800A06EE025BB7EEE6
:10523000C06A35EE065BB7EEC50B80ED100A80ED57
:105240000C1AD0ED0D5AB7EEC01A90ED115AB7EE08
:10525000E56A60EE850AB7EEE05A06EE021B31EE13
:10526000051BF7EEC10BC0ED110A80ED0D0A90EDA4
:105270000E0AB7EEE01AB7EEC05A05EE021B31EE89
:10528000041BB7EEC10B80ED120AB7EEC01AC0EDD9
:105290000E0ABDEC028B21EE030BB7EEC00B70477C
:1052A0007F4DD6A88768D63F0000002433333333C0
:1052B0003333D33F9A9999999999014060EEA01A96
:1052C0003F48F7EE006A9FED3C5BB7EEE14A2DEDFB
:1052D000028B76EEE00AD0ED1A1A90ED177A90ED77
:1052E000136A01EEC10A24EE055B20EE871A60EE18
:1052F000A11AB7EEC08A9FED332B9FED343B25EE0C
:10530000045BB7EEC17AB7EEE14A25EE081BB7EEB3
:10531000C66AB7EEC10BB7EEC01A06EE021B31EE3D
:10532000071BB7EEC11B80ED171A80ED130AD0EDF5
:10533000141AB7EEC15A90ED180AB7EEE16A20EEE2
:10534000800A06EE025BB7EEC06A35EE065BB7EE8A
:10535000C50B80ED180A80ED141AD0ED155AB7EE82
:10536000C01A90ED195AB7EEE56A60EE850AB7EEFD
:10537000E05A06EE021B31EE051BF7EEC10BC0ED45
:10538000190A80ED150A90ED160AB7EEE01AB7EE8D
:10539000C05A05EE021B31EE041BB7EEC10B80EDC7
:1053A0001A0AB7EEC01AC0ED160ABDEC028B21EE48
:1053B000030BB7EEC00B70477F4DD6A88768D63F6A
:1053C00000000024333333333333D33F9A99999910
:1053D0009999014060EEA01A4049F7EE006A9FEDEE
:1053E0003D5BB7EEE14A2DED028B76EEE00AD1EDA2
:1053F000021AA1F180009FED3A2B01EEC10A24EEC2
:10540000055B90ED1F7A60EEA11AB7EEC08A20EE20
:10541000871A90ED1B6A9FED343B25EE045BB7EED7
:10542000C17AB7EEE14A25EE081BB7EEC66AB7EEC1
:10543000C10BB7EEC01A06EE021B31EE071BB7EE2A
:10544000C11B80ED1F1A80ED1B0AD0ED1C1AB7EEB0
:10545000C15A91ED000AB7EEE16A20EE800A06EE2D
:10546000025BB7EEC06A35EE065BB7EEC50B81EDA9
:10547000000A80ED1C1AD0ED1D5AB7EEC01A91ED4E
:10548000015AB7EEE56A60EE850AB7EEE05A06EE1D
:10549000021B31EE051BF7EEC10BC1ED010A80EDD9
:1054A0001D0A90ED1E0AB7EEE01AB7EEC05A05EEDF
:1054B000021B31EE041BB7EEC10B81ED020AB7EE01
:1054C000C01AC0ED1E0ABDEC028B21EE030BB7EE35
:1054D000C00B70477F4DD6A88768D63F8000002458
:1054E000333333333333D33F9A99999999990140A0
:1054F00060EEA01A3F48F7EE006A9FED3C5BB7EE06
:10550000E14A2DED028B76EEE00AD0ED0A1A90ED1D
:10551000077A90ED036A01EEC10A24EE055B20EEE6
:10552000871A60EEA11AB7EEC08A9FED332B9FED6C
:10553000343B25EE045BB7EEC17AB7EEE14A25EEC7
:10554000081BB7EEC66AB7EEC10BB7EEC01A06EE7F
:10555000021B31EE071BB7EEC11B80ED071A80ED71
:10556000030AD0ED041AB7EEC15A90ED080AB7EE5F
:10557000E16A20EE800A06EE025BB7EEC06A35EE05
:10558000065BB7EEC50B80ED080A80ED041AD0ED7E
:10559000055AB7EEC01A90ED095AB7EEE56A60EE0B
:1055A000850AB7EEE05A06EE021B31EE051BF7EE58
:1055B000C10BC0ED090A80ED050A90ED060AB7EEB1
:1055C000E01AB7EEC05A05EE021B31EE041BB7EE2F
:1055D000C10B80ED0A0AB7EEC01AC0ED060ABDEC99
:1055E000028B21EE030BB7EEC00B70477F4DD6A8A0
:1055F0008768D63F80000024333333333333D33FBF
:105600009A99999999990140FEE77047F0B5B1B020
:10561000C0216846FAF727FF134A00230A251946D6
:10562000902606278DE8EC00022005904024069085
:10563000192340F22712CDE90741CDE90B200D9047
:105640008022CDE909131191CDE90E01CDE91602B1
:10565000109168462991FCF7F1FD002801D072B63F
:10566000FEE731B0F0BD0000000308002DE9F0476F
:10567000454D044689464FF0000A2868C04380071C
:105680000AD0414E283E306820F080603060FCF740
:10569000A3F90746B04608E00120BDE8F08700BF47
:1056A000FCF79AF9C01B022867D8D8F8000000015F
:1056B000F6D4206829684FF4FE0721F47C313E02BD
:1056C00041EA00302860207AA389B4F804C040027F
:1056D0002D4D2D495B1E227CACF1010C1035091DAE
:1056E000A0F5007080B2521ECCF3080C07EA034309
:1056F00040EA0C00184306EA02621043286008687A
:10570000626920F0C000104308600A68A06922F0B6
:10571000200202430A60281D0A6822F010020A6073
:1057200002684FF6F873E4699A4342EAC4020260E1
:105730000868B9F1000F40F010020A6011D0086843
:10574000B9F1010F11D040F400100860D8F8000042
:10575000444640F08060C8F80000FCF73DF905467B
:105760000DE0086840F40020EFE740F48010ECE71B
:10577000FCF732F9401B022801D903208DE720688D
:105780000001F5D5504688E7284402582DE9F04736
:10579000454D044689464FF0000A2868C0438007FB
:1057A0000AD0414E283E306820F080503060FCF72F
:1057B00013F90746B04608E00120BDE8F08700BFB6
:1057C000FCF70AF9C01B022867D8D8F8000080004F
:1057D000F6D4208829684FF4FE0721F07C713E0240
:1057E00041EA00502860207AA389B4F804C040023E
:1057F0002D4D2D495B1E227CACF1010C1835091D85
:10580000A0F5007080B2521ECCF3080C07EA0343E7
:1058100040EA0C00184306EA026210432860086858
:10582000626920F44060104308600A68A06922F4AD
:10583000007202430A60281D0A6822F480720A601E
:1058400002684FF6F873E4699A4342EAC4020260C0
:105850000868B9F1000F40F480720A6011D008683E
:10586000B9F1010F11D040F080700860D8F8000045
:10587000444640F08050C8F80000FCF7ADF80546FB
:105880000DE0086840F48000EFE740F40000ECE72A
:10589000FCF7A2F8401B022801D903208DE72068FD
:1058A0008000F5D5504688E7284402582DE9F0419C
:1058B0009548FDF7C5FE954B47F6FD714D424FF6F5
:1058C000FB770F26A3F11A02B3F900000844B8428F
:1058D00005D2B3F90200884201DCA84200DA167151
:1058E0008A4C241DB4F9000000EB010CBC4505D224
:1058F000B4F902708F4201DCAF4200DAD6708349FE
:1059000000EE100AA231A1F13C05B8EEC00A0F78F2
:1059100001F10C06802F14D295ED0C1AD5ED0B0A6F
:10592000FFF740FC86ED000AB4F9020095ED0C1A71
:1059300000EE100AD5ED0B0AB8EEC00AFFF7BEFC68
:1059400007E086ED000AB4F9020000EE100AB8EE96
:10595000C00A6E4F884686ED010A4878B63780281F
:10596000B3F9000000EE100AB8EEC00A14D295EDAB
:105970000E1AD5ED0D0AFFF72DFD87ED000AB3F9DC
:10598000020095ED0E1A00EE100AD5ED0D0AB8EEE4
:10599000C00AFFF7ADFD07E087ED000AB3F902008A
:1059A00000EE100AB8EEC00A4146594DDFF85CC15E
:1059B00087ED010A98F80280ACF1040CC9780CF16B
:1059C0000C0096ED000A05EB880805EB8101D8ED87
:1059D000000AD7ED001A20EE201A91ED000A01EE20
:1059E000801ABDEEC11A11EE101A09B2ACF80010FF
:1059F000D6ED011A97ED011A61EEA00A41EE000AF8
:105A0000BDEEE00A10EE105A2DB2ACF802509678B6
:105A100096B1012EB6EE000B12D0022E30D0032E1E
:105A200031D0198801805988A0F80210B0F900100F
:105A300000294CDD01884BE0218801806188F3E773
:105A400001EE101AB4F9001001EE905AB8EEC12B15
:105A500001EE101AB8EEE13BB8EEC11B01EE002BCF
:105A6000BDEEC21B11EE101A0180B4F9021001EE56
:105A7000101AB8EEC11B01EE003BBDEEC30B23E0D4
:105A800001804580D2E701EE101AB3F9001001EE53
:105A9000905A02EE101AB8EEC13BB8EEE14BB8EEE8
:105AA000C22BB0EE401B02EE003BFDEEC30B10EE2E
:105AB000901A0180B3F9021000EE101AB8EEC00B74
:105AC00000EE014BBDEEC40B10EE101AACE74942DC
:105AD000D180538989B2994200D95181B0F902101D
